:100000000C9434000C9451000C9451000C94510049
:100010000C9451000C9451000C9451000C9451001C
:100020000C9451000C9451000C9451000C9451000C
:100030000C9451000C9451000C9451000C945100FC
:100040000C9451000C9451000C9451000C945100EC
:100050000C9451000C9451000C9451000C945100DC
:100060000C9451000C94510011241FBECFEFD8E026
:10007000DEBFCDBF11E0A0E0B1E0E2E4F9E002C0F4
:1000800005900D92A833B107D9F721E0A8E3B1E0BC
:1000900001C01D92A834B207E1F70E9480010C94C0
:1000A0009F040C9400009BB19F70282F207F922BFF
:1000B0009BB95A985B9A35E03A95F1F700005B9846
:1000C000EFE1F3E03197F1F700C000002BB12F70A2
:1000D000F0E18F9FC0011124822B8BB95B9A35E030
:1000E0003A95F1F700005B988FE39FE10197F1F7F4
:1000F00000C0000008958FEF8AB98FE59AEE01974E
:10010000F1F700C0000082E00E94530088E20E94E4
:1001100053008CE00E94530086E00E94530081E06F
:100120000E9453008FE39FE10197F1F700C00000A8
:10013000089581E00E9453008FE39FE10197F1F75A
:1001400000C0000080E80C945300FC0191919111D3
:1001500001C008958BB18F70907F892B8BB95A9A0B
:100160005B9A85E08A95F1F700005B988FE193E058
:100170000197F1F700C000008BB1DF0111972C91BE
:1001800090E12902900111248F70822B8BB95B9A28
:1001900085E08A95F1F700005B988FE39FE1019776
:1001A000F1F700C00000D2CFCF93DF93D42FC52F3B
:1001B00081110BC0862F8F70806860316CF08D2F9D
:1001C0009C2FDF91CF910C94A5008130C1F7603155
:1001D000B4F7862F8F70806C0E945300F0CFCF93BE
:1001E000DF939C0160E17EE00E94AE01FB0180EFA5
:1001F00091EF689FE001699FD00D789FD00D112489
:10020000C20FD31FCE016CE370E00E94AE0144EC3C
:1002100046039001479F300D11242C0F3D1FC83518
:10022000D240CCF52A303105ECF43F932F937F93E5
:100230006F93FF93EF9384E091E09F938F9388E314
:1002400091E09F938F930E94D6018DB79EB70A9637
:100250000FB6F8949EBF0FBE8DBF88E391E0DF918B
:10026000CF9108953F932F937F936F93FF93EF93D5
:100270008FE091E09F938F9388E391E09F938F931A
:100280000E94D6018DB79EB70A960FB6F8949EBF0E
:100290000FBE8DBFE2CF2A303105CCF43F932F93B0
:1002A0007F936F93FF93EF9389E191E09F938F93F7
:1002B00088E391E09F938F930E94D6018DB79EB7FC
:1002C0000A960FB6F8949EBF0FBE8DBFC6CF3F9360
:1002D0002F937F936F93FF93EF9383E291E09F932C
:1002E0008F9388E391E09F938F930E94D6018DB7FF
:1002F0009EB70A960FB6F8949EBF0FBE8DBFADCFC6
:100300000E947B008CE291E00E94A50080EC0E949C
:10031000530080910001909101010E94EF000E9422
:10032000A5002FEF83ED90E3215080409040E1F74E
:1003300000C000008091000190910101A091020194
:10034000B09103010197A109B10980930001909335
:100350000101A0930201B0930301D8CF97FB072EB0
:1003600016F4009407D077FD09D00E94C20107FC63
:1003700005D03EF4909581959F4F089570956195B5
:100380007F4F0895AA1BBB1B51E107C0AA1FBB1FCB
:10039000A617B70710F0A61BB70B881F991F5A9511
:1003A000A9F780959095BC01CD010895AEE0B0E02D
:1003B000ECEDF1E00C9476040D891E8986E08C83C7
:1003C0001A8309838FEF9FE79E838D83AE01475E7B
:1003D0005F4F6F89788DCE0101960E94F9012F81C0
:1003E0003885020F131FF80110822E96E4E00C945A
:1003F0009204ABE0B0E0EFEFF1E00C9468047C0114
:100400003B018A01FC0117821682838181FFB9C1F9
:100410009AE0292ECE0101965C01F7019381F30148
:1004200093FD859193FF81913F01882309F446C193
:10043000853239F493FD859193FF81913F01853297
:1004400029F4B70190E00E94DA03E7CF912C412C08
:10045000512CFFE1F51538F08B3209F188F4803228
:1004600001F1833221F157FC3AC020ED280F2A30E8
:1004700040F556FE1FC0929C200D1124922E06C0FE
:100480008D3291F0803379F7689450F8F30193FD41
:10049000859193FF81913F018111DBCF20C068944A
:1004A00051F8689452F8F2CF689453F8EFCF6894FB
:1004B00054F8ECCF429C200D1124422E689455F83C
:1004C000E5CF8E3229F456FCF9C0689456F8DECF99
:1004D0008C3619F4689457F8D9CF8836B9F2982F2A
:1004E0009F7D95549330C0F08336A1F18337C1F1DD
:1004F000833509F05BC0F801C190D1908F01692D5F
:1005000070E056FC02C06FEF7FEFC6010E94C4038B
:100510004C01689457F80AC00C5F1F4F2FE32983E2
:1005200088248394912C6501E89457F853FC04C007
:100530004814190409F018F5342C8114910431F58C
:10054000332009F46ACFB70180E290E00E94DA0319
:100550003A94F6CFF801808189830E5F1F4FE0CF78
:10056000F801C190D1908F01692D70E056FC02C056
:100570006FEF7FEFC6010E94CF034C01D5CFB701CB
:1005800080E290E00E94DA034A94D2CFF60157FC51
:10059000859157FE81916F01B70190E00E94DA03C7
:1005A00031103A94F1E08F1A9108C7CF843619F0D0
:1005B000893609F074C0F80157FE6AC061917191E3
:1005C000819191918F01252D2F76D22E97FF09C011
:1005D00090958095709561957F4F8F4F9F4F689450
:1005E000D7F82AE030E0A5010E940A04C82ECA18F4
:1005F0008C2C5D2CD6FE0CC0E89450F8C91440F445
:10060000D4FE05C0D2FC03C0FD2DFE7E5F2E892CDA
:1006100054FE8FC0FE01EC0DF11D8081803309F086
:1006200081C0252D297E522E852D8870382E53FCB1
:100630008FC050FE89C09C2C841418F44C0C942C50
:10064000981854FE8BC0B70180E390E00E94DA0353
:1006500052FE09C088E790E051FE02C088E590E0B4
:10066000B7010E94DA03C91408F484C0CA94D12CDB
:100670009FEFC91AD90ACA0CDB1CF60182916F01DF
:10068000B70190E00E94DA03AC14BD04B1F758CF73
:1006900061917191072E000C880B990B93CFD52C8B
:1006A000E894D4F82AE030E0853739F1952D997F28
:1006B000D92E8F3601F148F48835A9F0F7018681EB
:1006C00097812B96E2E10C948404803749F08837B7
:1006D000A9F7D4FE02C06894D2F820E130E00DC042
:1006E0006894D4F8F6CF54FE03C0E92FE660DE2EFE
:1006F00020E132E002C028E030E0F801D7FE0DC072
:1007000061917191819191918F01A5010E940A04DB
:10071000C82ECA18E894D7F86BCF6191719190E018
:1007200080E0F2CF52FC02C083947ECF8394839406
:100730007BCF852D867809F477CFF6CFB70180E29D
:1007400090E00E94DA0383948414C0F3312C79CFB3
:10075000342C3818841408F474CFF8CF852D86789B
:1007600009F481CF8BE251FE80E257FC8DE2B701A4
:1007700090E077CFB70180E390E00E94DA039A948B
:1007800072CF8FEF9FEF9DCFFC01059061507040BD
:100790000110D8F7809590958E0F9F1F0895FC014A
:1007A0006150704001900110D8F7809590958E0FA0
:1007B0009F1F08950F931F93CF93DF93182F092F37
:1007C000EB018B8181FD09C01FEF0FEF812F902F6F
:1007D000DF91CF911F910F91089582FF14C02E8158
:1007E0003F818C819D81281739073CF4E881F9818C
:1007F000CF0101969983888310838E819F81019612
:100800009F838E83E3CFE885F985812F0995892B16
:10081000A1F3DACFFA01AA27283051F1203181F172
:10082000E8946F936E7F6E5F7F4F8F4F9F4FAF4FF8
:10083000B1E03ED0B4E03CD0670F781F891F9A1F0B
:10084000A11D680F791F8A1F911DA11D6A0F711DBF
:10085000811D911DA11D20D009F468943F912AE0CB
:10086000269F11243019305D3193DEF6CF010895B3
:10087000462F4770405D4193B3E00FD0C9F7F6CFE4
:10088000462F4F70405D4A3318F0495D31FD4052AC
:10089000419302D0A9F7EACFB4E0A6959795879542
:1008A00077956795BA95C9F7009761057105089521
:1008B0009B01AC010A2E06945795479537952795CD
:1008C000BA95C9F7620F731F841F951FA01D089565
:1008D0002F923F924F925F926F927F928F929F9250
:1008E000AF92BF92CF92DF92EF92FF920F931F933E
:1008F000CF93DF93CDB7DEB7CA1BDB0B0FB6F894EF
:10090000DEBF0FBECDBF09942A88398848885F842E
:100910006E847D848C849B84AA84B984C884DF809F
:10092000EE80FD800C811B81AA81B981CE0FD11D83
:100930000FB6F894DEBF0FBECDBFED010895F89459
:02094000FFCFE7
:10094200302A000025643A3025643A3025640025B7
:10095200643A3025643A25640025643A25643A30C5
:1009620025640025643A25643A25640048656C6C68
:080972006F20776F726C6400C6
:00000001FF
